:020000040800F2
:1000000000000220FD280008A90C0008AD0C000823
:10001000E10E0008E30E0008E50E000800000000F5
:10002000000000000000000000000000E70E0008D3
:10003000E90E000800000000EB0E0008ED0E0008BD
:1000400041290008412900084129000841290008E8
:1000500041290008412900084129000841290008D8
:10006000F50E00084129000841290008412900082F
:1000700041290008412900084129000841290008B8
:100080004129000841290008850F0008412900087E
:100090004129000841290008412900084129000898
:1000A0004129000841290008412900084129000888
:1000B00041290008F90E0008250F00084129000811
:1000C0004129000841290008412900084129000868
:1000D0004129000841290008412900084129000858
:1000E0004129000841290008412900084129000848
:1000F0004129000841290008412900084129000838
:1001000041290008E10F00084129000841290008A1
:100110004129000841290008412900084129000817
:10012000290F00084129000855280008E90F000898
:1001300041290008412900084129000841290008F7
:1001400041290008412900084129000841290008E7
:100150004129000841290008912800084129000888
:1001600041290008412900084129000841290008C7
:1001700041290008412900084129000841290008B7
:08018000412900084129000893
:1001900001F0FF01102A2BDB10F0070F08D010F838
:1001A000013B013A8B422DD010F0070F42B3F6D13C
:1001B000F0B441EA012141EA014122F007047FF055
:1001C00000070023F0E80256083C85EA010586EAAC
:1001D000010685FA47F5A3FA87F586FA47F6A5FAE8
:1001E00087F68EB9EED1F0BC01F0FF0102F00702F4
:1001F00032B110F8013B013A83EA010313B1F8D19F
:100200000020704701387047002D06BF354603387F
:10021000073815F0010F07D1013015F4807F02BFB8
:10022000013015F4C03F0130F0BC0138704700BF09
:10023000034613F8012B002AFBD1181A0138704726
:1002400081F0004102E000BF83F0004330B54FEA87
:1002500041044FEA430594EA050F08BF90EA020FF4
:100260001FBF54EA000C55EA020C7FEA645C7FEA87
:10027000655C00F0E2804FEA5454D4EB5555B8BFAA
:100280006D420CDD2C4480EA020281EA030382EA1B
:10029000000083EA010180EA020281EA0303362DAD
:1002A00088BF30BD11F0004F4FEA01314FF4801C80
:1002B0004CEA113102D0404261EB410113F0004F92
:1002C0004FEA03334CEA133302D0524263EB430349
:1002D00094EA050F00F0A780A4F10104D5F1200EE7
:1002E0000DDB02FA0EFC22FA05F2801841F1000142
:1002F00003FA0EF2801843FA05F359410EE0A5F116
:1003000020050EF1200E012A03FA0EFC28BF4CF046
:10031000020C43FA05F3C01851EBE37101F00045FC
:1003200007D54FF0000EDCF1000C7EEB00006EEB09
:100330000101B1F5801F1BD3B1F5001F0CD3490893
:100340005FEA30004FEA3C0C04F101044FEA4452EA
:1003500012F5800F80F09A80BCF1004F08BF5FEA71
:10036000500C50F1000041EB045141EA050130BD51
:100370005FEA4C0C404141EB0101013C28BFB1F563
:10038000801FE9D291F0000F04BF01460020B1FAAE
:1003900081F308BF2033A3F10B03B3F120020CDA81
:1003A0000C3208DD02F1140CC2F10C0201FA0CF05F
:1003B00021FA02F10CE002F11402D8BFC2F1200CC4
:1003C00001FA02F120FA0CFCDCBF41EA0C0190407A
:1003D000E41AA2BF01EB0451294330BD6FEA0404C3
:1003E0001F3C1CDA0C340EDC04F11404C4F12002AE
:1003F00020FA04F001FA02F340EA030021FA04F3C0
:1004000045EA030130BDC4F10C04C4F1200220FA16
:1004100002F001FA04F340EA0300294630BD21FA54
:1004200004F0294630BD94F0000F83F4801306BF1A
:1004300081F480110134013D4EE77FEA645C18BF0E
:100440007FEA655C29D094EA050F08BF90EA020FA5
:1004500005D054EA000C04BF1946104630BD91EA9D
:10046000030F1EBF0021002030BD5FEA545C05D1A0
:100470004000494128BF41F0004130BD14F58004DF
:100480003CBF01F5801130BD01F0004545F0FE4153
:1004900041F470014FF0000030BD7FEA645C1ABF88
:1004A000194610467FEA655C1CBF0B46024650EABF
:1004B000013406BF52EA033591EA030F41F40021EB
:1004C00030BD00BF90F0000F04BF0021704730B571
:1004D0004FF4806404F132044FF000054FF0000146
:1004E00050E700BF90F0000F04BF0021704730B507
:1004F0004FF4806404F1320410F0004548BF4042DC
:100500004FF000013EE700BF42004FEAE2014FEA30
:1005100031014FEA02701FBF12F07F4393F07F4F0B
:1005200081F06051704732F07F4208BF704793F00E
:100530007F4F04BF41F40021704730B54FF4607421
:1005400001F0004521F000411CE700BF50EA010224
:1005500008BF704730B54FF000050AE050EA0102CD
:1005600008BF704730B511F0004502D5404261EB3D
:1005700041014FF4806404F132045FEA915C3FF47E
:10058000D8AE4FF003025FEADC0C18BF03325FEA1B
:10059000DC0C18BF033202EBDC02C2F1200300FACC
:1005A00003FC20FA02F001FA03FE40EA0E0021FAF1
:1005B00002F11444BDE600BF70B54FF0FF0C4CF4DF
:1005C000E06C1CEA11541DBF1CEA135594EA0C0F91
:1005D00095EA0C0F00F0DEF82C4481EA030621EACC
:1005E0004C5123EA4C5350EA013518BF52EA033507
:1005F00041F4801143F4801338D0A0FB02CE4FF0B9
:100600000005E1FB02E506F00042E0FB03E54FF0E8
:100610000006E1FB03569CF0000F18BF4EF0010EE0
:10062000A4F1FF04B6F5007F64F5407404D25FEADC
:100630004E0E6D4146EB060642EAC62141EA55518F
:100640004FEAC52040EA5E504FEACE2EB4F1FD0CD1
:1006500088BFBCF5E06F1ED8BEF1004F08BF5FEA4F
:10066000500E50F1000041EB045170BD06F0004601
:1006700046EA010140EA020081EA0301B4EB5C04AE
:10068000C2BFD4EB0C0541EA045170BD41F48011A6
:100690004FF0000E013C00F3AB8014F1360FDEBFCB
:1006A000002001F0004170BDC4F10004203C35DAA7
:1006B0000C341BDC04F11404C4F1200500FA05F32A
:1006C00020FA04F001FA05F240EA020001F00042CB
:1006D00021F0004110EBD37021FA04F642EB060141
:1006E0005EEA430E08BF20EAD37070BDC4F10C046B
:1006F000C4F1200500FA04F320FA05F001FA04F22F
:1007000040EA020001F0004110EBD37041F100011A
:100710005EEA430E08BF20EAD37070BDC4F1200525
:1007200000FA05F24EEA020E20FA04F301FA05F28D
:1007300043EA020321FA04F001F0004121FA04F235
:1007400020EA020000EBD3705EEA430E08BF20EA05
:10075000D37070BD94F0000F0FD101F0004640003F
:1007600041EB010111F4801F08BF013CF7D041EAC1
:10077000060195F0000F18BF704703F000465200C5
:1007800043EB030313F4801F08BF013DF7D043EA96
:100790000603704794EA0C0F0CEA135518BF95EA4C
:1007A0000C0F0CD050EA410618BF52EA4306D1D1D3
:1007B00081EA030101F000414FF0000070BD50EAF2
:1007C000410606BF1046194652EA430619D094EA7C
:1007D0000C0F02D150EA013613D195EA0C0F05D166
:1007E00052EA03361CBF104619460AD181EA0301BA
:1007F00001F0004141F0FE4141F470014FF0000072
:1008000070BD41F0FE4141F4780170BD70B54FF00C
:10081000FF0C4CF4E06C1CEA11541DBF1CEA13558C
:1008200094EA0C0F95EA0C0F00F0A7F8A4EB05046E
:1008300081EA030E52EA03354FEA013100F0888065
:100840004FEA03334FF0805545EA131343EA12632E
:100850004FEA022245EA111545EA10654FEA0026E3
:100860000EF000419D4208BF964244F1FD0404F59C
:10087000407402D25B084FEA3202B61A65EB0305F8
:100880005B084FEA32024FF480104FF4002CB6EBB5
:10089000020E75EB030E22BFB61A754640EA0C0035
:1008A0005B084FEA3202B6EB020E75EB030E22BF75
:1008B000B61A754640EA5C005B084FEA3202B6EBB6
:1008C000020E75EB030E22BFB61A754640EA9C0075
:1008D0005B084FEA3202B6EB020E75EB030E22BF45
:1008E000B61A754640EADC0055EA060E18D04FEA03
:1008F000051545EA16754FEA06164FEAC30343EAA3
:1009000052734FEAC2025FEA1C1CC0D111F4801F6F
:100910000BD141EA00014FF000004FF0004CB6E768
:1009200011F4801F04BF01430020B4F1FD0C88BF07
:10093000BCF5E06F3FF6AFAEB5EB030C04BFB6EB12
:10094000020C5FEA500C50F1000041EB045170BD05
:100950000EF0004E4EEA113114EB5C04C2BFD4EB32
:100960000C0541EA045170BD41F480114FF0000EB6
:10097000013C90E645EA060E8DE60CEA135594EA32
:100980000C0F08BF95EA0C0F3FF43BAF94EA0C0F35
:100990000AD150EA01347FF434AF95EA0C0F7FF4AA
:1009A00025AF104619462CE795EA0C0F06D152EAFE
:1009B00003353FF4FDAE1046194622E750EA4106E2
:1009C00018BF52EA43067FF4C5AE50EA41047FF4F3
:1009D0000DAF52EA43057FF4EBAE12E74FF0FF3C58
:1009E00006E000BF4FF0010C02E000BF4FF0010C29
:1009F0004DF804CD4FEA410C7FEA6C5C4FEA430CA2
:100A000018BF7FEA6C5C1BD001B050EA410C0CBFF0
:100A100052EA430C91EA030F02BF90EA020F002052
:100A2000704710F1000F91EA030F58BF994208BFB9
:100A300090422CBFD8176FEAE37040F00100704776
:100A40004FEA410C7FEA6C5C02D150EA013C07D1CD
:100A50004FEA430C7FEA6C5CD6D152EA033CD3D018
:100A60005DF8040B704700BF8446104662468C4612
:100A70001946634600E000BF01B5FFF7B7FF002845
:100A800048BF10F1000F01BD4DF808EDFFF7F4FF6E
:100A90000CBF012000205DF808FB00BF4DF808EDF9
:100AA000FFF7EAFF34BF012000205DF808FB00BF1C
:100AB0004DF808EDFFF7E0FF94BF012000205DF83E
:100AC00008FB00BF4DF808EDFFF7CEFF94BF0120F3
:100AD00000205DF808FB00BF4DF808EDFFF7C4FFEC
:100AE00034BF012000205DF808FB00BF4FEA410C35
:100AF0007FEA6C5C02D150EA013C0AD14FEA430C18
:100B00007FEA6C5C02D152EA033C02D14FF0000054
:100B100070474FF0010070474FEA410212F5001292
:100B200015D211D56FF47873B3EB625212D94FEA34
:100B3000C12343F0004343EA505311F0004F23FA1E
:100B400002F018BF404270474FF00000704750EA73
:100B5000013005D111F0004008BF6FF00040704730
:100B60004FF00000704700BF0348044B834202D09F
:100B7000034B03B1184770473802002038020020A9
:100B8000000000000548064B1B1AD90F01EBA3011A
:100B9000491002D0034B03B11847704738020020B8
:100BA000380200200000000010B5064C237843B93D
:100BB000FFF7DAFF044B13B10448AFF300800123C1
:100BC000237010BD3802002000000000B45200085D
:100BD00008B5054B1BB105490548AFF30080BDE8DA
:100BE0000840FFF7CFBF00BF000000003C0200201C
:100BF000B452000810B59AB001F0BAFA01F0D6FA72
:100C000001F0AAFB01F080FA01F008FE204802F092
:100C1000CFFC01F007F900240D211E4800F0CFFAA7
:100C2000642001F03FF921461B4802F059FC0021E5
:100C30000EA801F06FFA1598FFF766FCCDE90001E8
:100C4000149A0E99154802F04BFC012102A801F0FC
:100C500061FA0DF1380C0DF1080EBEE80F00ACE89A
:100C60000F00BEE80F00ACE80F009EE80F008CE814
:100C70000F001598FFF748FCCDE90001149A0E9972
:100C8000074802F02DFC074802F092FC0134C3E74C
:100C9000D852000800080240E8520008F852000844
:100CA0003C5300089C540008704700002DE9F04FA9
:100CB00087B01EF0040F0CBFEFF30883EFF3098336
:100CC0001A461D68D5F804B0D5F808A0D5F80C90E0
:100CD000D5F810806B690193AB690293EB690393BC
:100CE0005F4B9C6ADE6A1A6B0492DA6B05929B6A10
:100CF00013F0800F6BD05A4B5F6B5A4802F058FCD0
:100D00002946594802F0ECFB5946584802F0E8FBE6
:100D10005146574802F0E4FB4946564802F0E0FBD2
:100D20004146554802F0DCFB0199544802F0D8FBDB
:100D30000299534802F0D4FB0399524802F0D0FBC9
:100D4000514802F035FC2146504802F0C9FB3146BB
:100D50004F4802F0C5FB04994E4802F0C1FB0599CB
:100D60004D4802F0BDFBB7F1FF3F3BD14B4802F0CD
:100D70001FFC14F0010F3AD114F0020F3BD114F014
:100D8000040F3CD114F0080F3DD114F4807F3ED104
:100D900014F4007F3FD114F4806F40D114F4006F3D
:100DA00041D114F4805F42D114F4005F43D114F4B4
:100DB000804F44D114F4004F45D116F0804F46D1F6
:100DC00016F0020F47D1364802F0F2FBFEE7244B43
:100DD0009B6A13F4004F02D0214B9F6B8DE74FF0BD
:100DE000FF378AE739462F4802F07AFBBEE72E48E4
:100DF00002F0DEFBC0E72D4802F0DAFBBFE72C482B
:100E000002F0D6FBBEE72B4802F0D2FBBDE72A4832
:100E100002F0CEFBBCE7294802F0CAFBBBE728483A
:100E200002F0C6FBBAE7274802F0C2FBB9E7264842
:100E300002F0BEFBB8E7254802F0BAFBB7E724484A
:100E400002F0B6FBB6E7234802F0B2FBB5E7224852
:100E500002F0AEFBB4E7214802F0AAFBB3E700BF03
:100E600000ED00E080530008A8530008B8530008C4
:100E7000C8530008D8530008E8530008F853000886
:100E800008540008185400089C540008285400080E
:100E90003854000848540008585400088454000886
:100EA0002856000868540008A0540008C0540008E0
:100EB000D8540008F8540008105500082C550008B4
:100EC0004C5500087055000894550008B4550008AA
:100ED000C8550008E0550008F85500080C560008F1
:100EE000FEE7FEE7FEE770477047704708B501F080
:100EF00019FB08BD7047000008B50121074800F044
:100F000046FD00B908BD0121044800F04CFD4FF436
:100F10000051034800F053F9F4E700BF000400401B
:100F2000000802407047000008B50F490F4800F064
:100F300087FE28B90E490D4800F082FE60B908BD51
:100F400009490A4800F0ACFE0A4B01221A700A490E
:100F50000A4800F057FAEDE70549044800F0A0FE02
:100F6000074802F025FBEAE72080001010640240E9
:100F700008200010550200200002800000200140DF
:100F80004C56000808B54FF48371134800F042FA3C
:100F900030B940F20521104800F03CFAB0B908BD64
:100FA0004FF483710C4800F047FA0C4A1378013370
:100FB000DBB21370032B04D00021074800F022FAA3
:100FC000E7E70021044800F01DFAF5E740F20521AB
:100FD000014800F031FAE2E700200140540200200D
:100FE00008B501F033FA08BD08B501F085FA08BD6F
:100FF0000120704708B502F01DFC162303604FF076
:10100000FF3008BD08B54FF0FF31FFF7F3FFFEE7F3
:1010100070B50C461646002506E0AFF30080214669
:1010200001F8010B01350C46B542F6DB304670BDC8
:1010300070B50C461646002504E014F8010B01F0CB
:10104000B7FB0135B542F8DB304670BD4FF0FF30DD
:1010500070474FF400534B600020704701207047E9
:101060000020704710B503460C4A0D490D48006832
:1010700040B10C4800680344521A934206D8094A0A
:10108000136010BD0748084C0460F2E702F0D2FB81
:101090000C2303604FF0FF30F3E700BF0000022095
:1010A000000400005802002078060020C378FBB13D
:1010B000154BDA68D243C2F30222C2F10401C9B26D
:1010C0000F23134142788A40D2B281780B401343F8
:1010D0001B01DBB202780D490A4482F80033037821
:1010E00003F01F005B090122824041F82320704772
:1010F000037803F01F015B0901228A402033034972
:1011000041F82320704700BF00ED00E000E100E05F
:1011100000220F2A4DD810B514E0C36894B26400C1
:101120004FF0030E0EFA04FE23EA0E03C360C368F9
:1011300091F807E00EFA0CFC43EA0C03C36001329D
:101140000F2A35D8012393400C68A343F7D10468D4
:101150004FEA420C032303FA0CF36FEA030E24EA6E
:101160000303036003680C7904FA0CF4234303605F
:101170000B79013BDBB2012BCFD883680EEA030366
:10118000836083684C7904FA0CF4234383604368DA
:101190001FFA82FE012404FA0EF423EA04034360DA
:1011A00044688B7903FA0EF39BB223434360B4E7A0
:1011B00010BD7047816170470904816170474369C0
:1011C00059404161704710B401F007039B009A40F9
:1011D000C908083150F821404FF00F0C0CFA03F306
:1011E00024EA030340F8213050F82130134340F83B
:1011F00021305DF8044B704710B4294B9B6803F015
:101200000C03042B21D0082B22D0002B45D1254BD9
:101210000360234CA368C3F303132349CA5CD2B20F
:101220000368D3404360A268C2F382228A5CD2B2D0
:1012300023FA02F28260A268C2F342328A5CD2B21E
:10124000D340C3605DF8044B7047184B0360E0E780
:10125000134B59685A6802F03F0211F4800F12D004
:10126000124BB3FBF2F30E4A5268C2F3881202FB30
:1012700003F30B4A5268C2F3014201325200B3FB3E
:10128000F2F30360C5E7074BB3FBF2F3044A52687D
:10129000C2F3881202FB03F3EBE7024B0360B8E7EB
:1012A000003802400024F4006056000800127A0062
:1012B00021B1054A136B034313637047024A136B52
:1012C00023EA0003136370470038024021B1054A46
:1012D000136C034313647047024A136C23EA000340
:1012E000136470470038024021B1054A536C034330
:1012F00053647047024A536C23EA000353647047F7
:101300000038024030B585B004460D46038A9BB2D2
:1013100023F44053CA881343038283899BB223F486
:10132000B05323F00C03898828896A8901430A4352
:101330001343A381A38A9BB223F44073AA89134366
:10134000A3826846FFF758FF1F4B9C4205D003F568
:1013500080639C4201D0029B00E0039BA28912F4AF
:10136000004F1FD103EB830303EB83032A68920032
:10137000B3FBF2F3154AA2FB0312520911016420D8
:1013800002FB1033A28912F4004F14D11B01323337
:101390000E4AA2FB0323C3F343130B439BB22381E7
:1013A00005B030BD03EB830303EB83032A685200CF
:1013B000B3FBF2F3DEE7DB003233044AA2FB032384
:1013C000C3F342130B43E9E7001001401F85EB51C3
:1013D00029B183899BB243F4005383817047838989
:1013E0009BB223F400539BB28381704722B1838A5E
:1013F0009BB20B4383827047838AC94389B21940E9
:1014000081827047436823F4400323F400730B4345
:101410004360704742685FFA81FC012303FA0CF3D2
:101420001A40036813EA112302D01AB9002070474A
:1014300000207047012070476FEA1121016070475A
:1014400000B5B0F820C01FFA8CFC2CF0010C1FFA7C
:101450008CFCA0F820C0B0F818E01FFA8EFEB0F89F
:1014600020C01FFA8CFC2EF0F30E1B019BB213431D
:101470004EEA030E2CF00A0C4CEA010C4CF0010C65
:10148000A0F818E0A0F820C05DF804FB00B5B0F8A3
:1014900020C01FFA8CFC2CF0100C1FFA8CFCA0F85A
:1014A00020C0B0F818E0B0F820C01FFA8CFC090189
:1014B00089B22EF4407E4FEA0E5E4FEA1E5E1B0399
:1014C0009BB243EA0E03120292B21A432CF0A00C14
:1014D0004CEA010C4CF0100C0283A0F820C05DF81F
:1014E00004FB00B5B0F820C01FFA8CFC2CF4807C03
:1014F0001FFA8CFCA0F820C0B0F81CE01FFA8EFE8A
:10150000B0F820C01FFA8CFC090289B22EF0F30E4D
:101510001B019BB213434EEA030E2CF4206C4CEAE1
:10152000010C4CF4807CA0F81CE0A0F820C05DF811
:1015300004FB00B5B0F820C01FFA8CFC2CF4805CD2
:101540001FFA8CFCA0F820C0B0F81CE0B0F820C056
:10155000090389B22EF4407E4FEA0E5E4FEA1E5E0A
:10156000120292B242EA0E021B039BB213432CF406
:10157000005C4FEA4C4C4FEA5C4C41EA0C0141F4F0
:101580008051838301845DF804FB000003889BB2D3
:101590001B4A904212D002F5806290420ED0B0F108
:1015A000804F0BD0A2F58032904207D002F58062C6
:1015B000904203D002F58062904203D123F0700381
:1015C0004A8813430F4A904208D002F58062904245
:1015D00004D023F440739BB20A89134303804B6801
:1015E000C3620B880385064B984203D003F58063E2
:1015F000984201D18B7A038601238382704700BF12
:101600000000014000100040406A704729B1038883
:101610009BB243F080030380704703889BB223F0A2
:1016200080039BB20380704729B103889BB243F0CB
:1016300001030380704703889BB223F001039BB230
:101640000380704710B5038C9BB223F001039BB25B
:101650000384B0F820C01FFA8CFCB0F804E01FFA35
:101660008EFE028B92B222F073020B881A432CF08A
:10167000020C8B894CEA030C4B8843EA0C030F4C99
:10168000A04203D004F58064A0420FD123F00803E8
:10169000CC89234323F004038C8823432EF4407E1B
:1016A0000C8A4EEA040E4C8A44EA0E0EA0F804E0BE
:1016B00002838A684263038410BD00BF00000140BA
:1016C00000B5038C9BB223F010039BB20384028C01
:1016D00092B2B0F804E01FFA8EFEB0F818C01FFAFC
:1016E0008CFC2CF4E64C0B881B029BB24CEA030CDE
:1016F00022F020028B891B019BB21A434B881B01ED
:101700009BB21343134A904203D002F58062904289
:1017100017D123F08003CA89120192B2134323F038
:1017200040038A88120192B213432EF4406E0A8A53
:10173000920092B24EEA020E4A8A920092B242EAB5
:101740000E0EA0F804E0A0F818C08A688263038433
:101750005DF804FB0000014000B5038C9BB223F44C
:1017600080739BB20384028C92B2B0F804E01FFA3B
:101770008EFEB0F81CC01FFA8CFC2CF0730C0B888A
:101780004CEA030C22F400728B891B029BB21A43B1
:101790004B881B029BB21343134A904203D002F5BD
:1017A0008062904217D123F40063CA89120292B278
:1017B000134323F480638A88120292B213432EF4F7
:1017C000405E0A8A120192B24EEA020E4A8A120161
:1017D00092B242EA0E0EA0F804E0A0F81CC08A689B
:1017E000C26303845DF804FB0000014010B5038C64
:1017F0009BB223F480539BB20384B0F820C01FFA3D
:101800008CFCB0F804E01FFA8EFE828B92B222F4B8
:10181000E6420B881B029BB21A432CF4005C8B89B6
:101820001B039BB24CEA030C4B881B039BB243EA9D
:101830000C030C4CA04203D004F58064A04209D1F3
:101840002EF4804EB1F810C04FEA8C1C1FFA8CFCAD
:101850004EEA0C0EA0F804E082838A6802640384D6
:1018600010BD00BF00000140038B9BB223F00803B2
:101870000B4303837047038B9BB223F4006309027D
:1018800089B20B4303837047838B9BB223F0080319
:101890000B4383837047838B9BB223F4006309025D
:1018A00089B20B4383837047038B9BB223F00C03F5
:1018B0009BB20383038B9BB20B4303837047038B61
:1018C0009BB223F440639BB20383038B9BB2090258
:1018D00089B20B4303837047838B9BB223F00C03C5
:1018E0009BB28383838B9BB20B4383837047838B31
:1018F0009BB223F440639BB28383838B9BB2090228
:1019000089B20B438383704738B505460C460B8874
:101910006BB1042B15D0082B1DD00B898A88498800
:10192000FFF707FEE1882846FFF7E1FF38BD0B8986
:101930008A884988FFF784FDE1882846FFF7B4FFCD
:10194000F4E70B898A884988FFF7A0FDE1882846DB
:10195000FFF7B5FFEAE70B898A884988FFF7C1FDE1
:10196000E1882846FFF7B8FFE0E749B1B0F8443016
:101970006FEA43436FEA53439BB2A0F84430704789
:10198000B0F84430C3F30E03A0F844307047028A25
:1019900083890B40114202D01BB900207047002000
:1019A000704701207047C94389B20182704710B562
:1019B0000489A4B2B0F818C01FFA8CFCB0F820E07B
:1019C0001FFA8EFE24F007040C432CF4407C2CF00C
:1019D000030C4CF4807C4CF0010C2EF0220E1B0109
:1019E0009BB213434EEA030E0481A0F818C0A0F87E
:1019F00020E010BD036823F00103036000230360AF
:101A000043608360C3600361212343613C4B984280
:101A10002DD03C4B98422ED03B4B984230D03B4B84
:101A2000984232D03A4B984234D03A4B984235D013
:101A3000394B984236D0394B984237D0384B984280
:101A400039D0384B98423AD0374B98423CD0374B3C
:101A500098423ED0364B984240D0364B984241D0C7
:101A6000354B984242D0354B984243D07047103B9B
:101A70003D229A607047283B4FF474629A60704729
:101A8000403B4FF474129A607047583B4FF07462B9
:101A90009A607047703B2A4ADA607047883B294A4F
:101AA000DA607047A03B284ADA607047B83B4FF0D5
:101AB0003D52DA607047103B3D229A607047283BE8
:101AC0004FF474629A607047403B4FF474129A600E
:101AD0007047583B4FF074629A607047703B184AE9
:101AE000DA607047883B174ADA607047A03B164AB5
:101AF000DA607047B83B4FF03D52DA60B6E700BF9E
:101B0000106002402860024040600240586002407D
:101B10007060024088600240A0600240B8600240ED
:101B2000106402402864024040640240586402404D
:101B30007064024088640240A0640240B8640240BD
:101B40003D000020400F002000003D2010B403683D
:101B5000134A1A400B68CC6823434C6923438C69B1
:101B60002343CC6923430C6A23434C6A23438C6A86
:101B700023434C6B23438C6B234313430360426921
:101B800022F00702CB6A0C6B2343134343610B69BA
:101B900043604B6883608B68C3605DF8044B70479B
:101BA0003F801CF021B1036843F0010303607047DC
:101BB000036823F0010303607047416070470368C6
:101BC00013F0010F01D00120704700207047000082
:101BD0000A4B98420AD8A3F20F4311F0005F07D0D6
:101BE00021F0F02121F08211D9607047044BF4E715
:101BF00021F0F02121F08211996070470F640240BA
:101C00000064024011F0800F04D062B1436943F0D8
:101C100080034361802911D052B1036801F01E0195
:101C20000B4303607047436923F080034361F1E78E
:101C3000036801F01E0123EA0103036070470000FE
:101C400010B4144B984217D8134C21F0F02323F012
:101C5000C3139BB1CB0A03F01E0302681A4011F0B4
:101C6000005F0FD0636823F0F02323F08213194242
:101C70000AD06AB9002008E0084CE6E7426902F0A1
:101C80008002ECE72368EEE700205DF8044B704724
:101C90000120FAE70F640240006002400064024045
:101CA0000A4B98420AD8A3F20F4311F0005F07D005
:101CB00021F0F02121F08211D9607047044BF4E744
:101CC00021F0F02121F08211996070470F640240E9
:101CD0000064024021B1054AD36B0343D3637047CC
:101CE000024AD36B23EA0003D3637047002C014000
:101CF000034B5B6B034201D001207047002070470B
:101D0000002C0140014B9863704700BF002C01403C
:101D100082B00023019300932A4A136843F480336E
:101D20001360284B1B6803F400330093019B0133BD
:101D30000193009B1BB9019BB3F5A04FF1D1214B3F
:101D40001B6813F4003F06D001230093009B012B76
:101D500004D002B0704700230093F7E7194B1A6CC8
:101D600042F080521A6418490A6842F440420A60FC
:101D70009A689A609A6842F400429A609A6842F4BB
:101D8000A0529A60114A5A601A6842F080721A6032
:101D90000C4B1B6813F0007FFAD00D4B40F205721C
:101DA0001A60A3F580639A6822F003029A609A6829
:101DB00042F002029A60034B9B6803F00C03082B6D
:101DC000F9D1C6E7003802400070004008544007CF
:101DD000003C024010B5104CD4F8883043F4700336
:101DE000C4F888300D4B1A6842F001021A600021D5
:101DF00099601A6822F0847222F480321A60084ACC
:101E00005A601A6822F480221A60D960FFF780FFB6
:101E10004FF00063A36010BD00ED00E00038024009
:101E20001030002410B584B001210420FFF74EFAD1
:101E30004FF0FF3302934723ADF804300023ADF891
:101E40000C30ADF80630054C01A92046FFF79EFB8B
:101E500001212046FFF7E8FB04B010BD0008004058
:101E600070B582B0044609280AD800EBC0046400AB
:101E70000194019B5A1E0192002BFAD102B070BD51
:101E80000748FFF7C1FB064602E0831BA342F5D2D9
:101E900005460348FFF7B8FB8542F6D8831BF5E7F4
:101EA0000008004010B504E04FF47A70FFF7D8FF47
:101EB0002046441E0028F7D110BD00002DE9F04156
:101EC00082B001210846FFF7F3F9032600960227A6
:101ED0008DF804708DF805604FF000088DF80680CD
:101EE00001258DF80750174C69462046FFF710F979
:101EF00069462046FFF70CF93A4641462046FFF76F
:101F000062F93A4629462046FFF75DF929463046F0
:101F1000FFF7CEF92823009369462046FFF7F8F82B
:101F2000094F69463846FFF7F3F82A46052120464F
:101F3000FFF749F92A4631463846FFF744F902B01F
:101F4000BDE8F081000002400004024070B582B09C
:101F5000354B93E8030002AB03E90300002540E0A2
:101F6000324A934203DA03F5433303F2411320600C
:101F70006360A2691A44A26107EE903AF8EEE76A3C
:101F8000DFED2B7A86EEA77ADFED2A6AC7EE267A96
:101F9000C4ED037A9FED286AC7EE866AC4ED026A33
:101FA000DFED266A67EEA67AC4ED047ADFED246AD7
:101FB00067EEA67AC4ED057AD4ED077ADFED216AE3
:101FC00027EE267ADFED206A27EE267A77EE877AEB
:101FD000C4ED077A002B1BDD012384F82030E66274
:101FE0000135012D1EDC00F0CDFA064602AB03EBF5
:101FF000850353F8084C606BFFF706FB2368C31A90
:10200000124A9342ACDDA3F54333A3F24113AEE78A
:10201000002B03DB002384F82030E0E7022384F860
:102020002030DCE702B070BDD05200086079FEFFBE
:1020300000C0DA46CDCCCC3D8988883CD00FC94061
:10204000B81E053DD00F4940B81E853DA086010051
:10205000F0B587B001210920FFF738F9284B049328
:102060000024ADF80C40ADF81440ADF80E4003A9C3
:102070004FF08040FFF78AFAADF80040ADF802401B
:102080000126ADF80460ADF806400523ADF8083030
:1020900069464FF08040FFF737FC0427ADF8007029
:1020A00069464FF08040FFF72FFC23462246314619
:1020B0004FF08040FFF77BFC31464FF08040FFF748
:1020C000B3FA104D03A92846FFF760FAADF80040B7
:1020D00069462846FFF718FCADF8007069462846A7
:1020E000FFF712FC2346224631462846FFF75FFCE5
:1020F00031462846FFF798FAFFF728FF07B0F0BDF2
:10210000400D0300000C004008B5FFF7D7FEFFF7B5
:102110009FFF08BD30B58FB005460C46FFF716FF90
:102120003022002102A801F023FB012C18D80F4A0D
:102130006B4692E8030083E803000EAB03EB8404D4
:10214000AC4654F8384C0FCCACE80F000FCCACE8E0
:102150000F0094E80F008CE80F0028460FB030BD48
:1021600030220021284601F003FBF6E7D052000898
:1021700030B583B001210420FFF79AF800238DF8D1
:10218000063001228DF804204FF4005500958DF89B
:102190000530054C69462046FEF7BAFF2946204621
:1021A000FFF708F803B030BD0008024008B54FF44F
:1021B00000510248FEF7FEFF08BD00BF00080240C4
:1021C00010B584B0044608460121FFF78DF842F2AD
:1021D000CF0302930023ADF80430ADF80C30ADF816
:1021E000063001A92046FFF7D1F901212046FFF76B
:1021F0000DFA04B010BD10B586B004466023ADF8EA
:1022000004300123ADF806300423ADF80830002374
:102210000393ADF81030ADF81230ADF81430ADF8CE
:1022200016300C290FD8DFE801F0070E0E0E100E45
:102230000E0E180E0E0E200001A9FFF703FA08215A
:102240002046FFF711FB06B010BD01A9FFF738FAD1
:1022500008212046FFF70FFBF5E701A9FFF77CFAFD
:1022600008212046FFF710FBEDE701A9FFF7BEFAB2
:1022700008212046FFF70FFBE5E700002DE9F043BA
:1022800083B001211020FFF713F801211020FFF780
:102290000FF84FF40073009302278DF804704FF08D
:1022A00003088DF8058000268DF8066001258DF85D
:1022B0000750284C69462046FEF72AFF2A46092186
:1022C0002046FEF780FF4FF44069CDF800908DF86E
:1022D00004508DF805708DF806608DF8076069462A
:1022E0002046FEF715FF49462046FEF765FF2946C2
:1022F0001020FEF7DDFF29461020FEF7D9FF4FF42E
:10230000005300938DF804708DF805808DF80660F9
:102310008DF8075069462046FEF7FAFE2A460D2141
:102320002046FEF750FF4FF4A048CDF800808DF80E
:1023300004508DF805708DF806608DF807606946C9
:102340002046FEF7E5FE41462046FEF735FF03B086
:10235000BDE8F0830010024010B50E4C012120466C
:10236000FFF72EFF00212046FFF745FF0121204601
:10237000FFF726FF08212046FFF73DFF01212046F9
:10238000FFF7F3FA01212046FFF74EF9FFF776FF3A
:1023900010BD00BF0000014048B151B15AB1016009
:1023A00082800022C2800281827201207047002058
:1023B00070470020704700207047A8B100B5024662
:1023C000B0F806C00CF10103808893FBF0FE00FB1F
:1023D0001E339BB21089984208D0106800F80C1088
:1023E000D38001205DF804FB002070470020F9E74E
:1023F00060B1C38801898B4202D35B1A98B27047DF
:102400008088401A13FA80F080B27047002070472D
:10241000034630B1C0881B89984214BF00200120B8
:1024200070470120704780B138B50D460446FFF76C
:10243000DFFFA84200D3284623891844A38890FBD5
:10244000F3F203FB1200208138BD704708B54FF44A
:102450008070FFF74DFC88B1254B00221A704FF4B5
:102460008070FFF74FFC234B01221A6000214CF2D1
:102470003A30FFF72FFC1E4B187808BD0220FFF7FB
:1024800037FC30B10220FFF73DFC194B02221A70D5
:10249000ECE70820FFF72CFC30B10820FFF732FCF6
:1024A000134B04221A70E1E72020FFF721FC30B122
:1024B0002020FFF727FC0E4B06221A70D6E71020CB
:1024C000FFF716FC30B11020FFF71CFC084B05226B
:1024D0001A70CBE74FF40070FFF70AFC0028C5D054
:1024E0004FF40070FFF70EFC014B07221A70BDE796
:1024F000640200206002002008B5074B1B6813F03F
:10250000C05F00D108BD054B01221A604FF0C251D7
:102510000348FFF75DFBF5E7006402405C02002022
:102520005864024010B5144A136801331360002444
:1025300000E00134114B1B78A3421CDD104B03EB70
:1025400004131B7B002BF4D023010D4AD158002922
:10255000EFD0094B1A680A4B03EB04139868121A60
:102560005B689A42E5D38847034B1A68044B03EB38
:1025700004139A60DDE710BD080300206502002007
:102580006802002072B6024B186862B6704700BF3E
:1025900008030020F0B591B001214FF48000FEF750
:1025A00087FE3A238DF8003000258DF80150012474
:1025B0008DF802408DF803406846FEF777FD46230C
:1025C0008DF800308DF801508DF802408DF80340F1
:1025D0006846FEF76BFD2F48FFF70CFA2D48FFF712
:1025E000EEFA0028FAD14FF0006301932A4B0293D0
:1025F0000023039340220492059306934FF48062D4
:102600000792089309930A934FF400320B920C93AC
:1026100001220D920E930F9301A91E48FFF796FA1F
:102620001E48FFF7E7F91B48FFF7C9FA0028FAD15F
:102630004FF000630193184B029300240394049419
:10264000059406944FF480630793089409940A94C0
:102650004FF400330B930C9401260D960E940F94B7
:102660000E4D01A92846FFF771FA3246102128467F
:10267000FFF7C8FA074F324610213846FFF7C2FA73
:1026800021463846FFF78EFA21462846FFF78AFA98
:1026900011B0F0BDB8640240041001404064024033
:1026A000114BD9881B8999421CD070B515D9C91A0C
:1026B0008CB20D4D2A681A440C4BC3F8C4200C4E42
:1026C00021463046FFF779FA0A4B1C80012130463B
:1026D000FFF768FA0123AB7270BD034A9488E41ACD
:1026E000A4B2E6E7704700BF1C030020006402406C
:1026F000B86402400C03002010B582B001210846E6
:10270000FEF7D6FD02238DF8043000238DF8063045
:1027100001228DF807208DF805304FF400730093E7
:102720000B4C69462046FEF7F3FC4FF480630093A0
:1027300069462046FEF7ECFC072209212046FEF7F9
:1027400042FD07220A212046FEF73DFD02B010BDE2
:102750000000024010B584B001211020FEF7C4FD36
:10276000FFF7CAFF4FF4E13300930023ADF80430C4
:10277000ADF80630ADF808300C22ADF80A20ADF8FF
:102780000C300A4C012280212046FEF72FFE012248
:1027900040212046FEF72AFE69462046FEF7B2FD9C
:1027A00001212046FEF714FE04B010BD00100140C8
:1027B00038B505460024E9B20D48FFF7FEFD48B9DB
:1027C0000120FFF74DFB631C9BB2B4F57A7F01D269
:1027D0001C46F0E7064B9B7A0BB1284638BD0448EF
:1027E000FFF716FE0028F8D1FFF75AFFF5E700BF04
:1027F0001C03002010B5064C2268064BDA64A28840
:102800005A6401210448FFF7CDF90123A37210BDDA
:1028100010030020006402404064024008B54FF4F9
:10282000807208490848FFF7B7FD4FF480720749E6
:102830000748FFF7B1FDFFF7ADFEFFF78BFFFFF78E
:10284000D9FF08BD280400201C0300202803002015
:102850001003002008B50A490A48FFF7F1F900B94A
:1028600008BD07490748FFF71BFA074B01221A70FA
:1028700000210648FFF796F9FFF7BCFFF0E700BF1D
:1028800000802010406402400E0300208864024053
:1028900010B514491448FFF7D3F900B910BD124C14
:1028A00010492046FFF7FCF9104B01221A70002155
:1028B0002046FFF777F90E4B19880E4BD3F8BC3042
:1028C0009BB2C91A0C4C89B22046FFF7ACFD00231D
:1028D000A3722046FFF79CFD0028DFD1FFF7E0FE42
:1028E000DCE700BF00800028B86402400F0300202E
:1028F0000C030020006402401C030020002103E0C0
:102900000A4B5B584350043109480A4B42189A421B
:10291000F6D3094A02E0002342F8043B074B9A42EF
:10292000F9D3FFF757FAFEF765F97047F459000835
:102930000000002038020020380200207406002029
:10294000FEE70000024B0146186800F025B800BF02
:102950007C00002070B50F4E0C463168054611B959
:1029600000F046FF30602146284600F041FF431C3E
:1029700003D14FF0FF34204670BDC41C24F0030483
:10298000A042F8D0211A284600F032FF0130F2D1DF
:10299000EFE700BF280500202DE9F843CD1C25F006
:1029A000030508350C2D38BF0C25002D064601DB2C
:1029B000A94204D90C2333600020BDE8F883DFF876
:1029C000D48000F069F8D8F800301C4644BB294692
:1029D0003046FFF7BFFF431C044658D1D8F80040EB
:1029E0002746002F43D1002C4BD023683946304670
:1029F00004EB030900F0FCFE814542D121686D1A09
:102A000029463046FFF7A6FF01303AD023682B4411
:102A10002360D8F800305A6862BBC8F800700FE035
:102A20002268521B20D40B2A17D96119A3422560B2
:102A300018BF5960636808BFC8F8001062514B6046
:102A4000304600F02FF804F10B00231D20F00700A2
:102A5000C21A1CBF1B1AA350AFE76268A3420CBF87
:102A6000C8F800205A60EBE723466468AEE73C46AE
:102A70007F68B6E71A465B68A342FBD10023536028
:102A8000DEE70C233360304600F00CF894E7056075
:102A9000D6E700BF2C050020014800F0D2BE00BFE1
:102AA00070060020014800F0CDBE00BF7006002077
:102AB0002DE9FF4757EC106B002F0C4619463B469B
:102AC000BBBF07F100431F4600232D230B700D9B56
:102AD000DDF830A0914623F02008BCBF32461646F0
:102AE000B8F1460F05D0B8F1450F00D101340221ED
:102AF00000E0032103AB019302AB009347EC106BA2
:102B00005346224600F028FFB8F1470F054619D179
:102B100019F0010F0ED000EB04090022002330460B
:102B20003946FDF7B1FF08B1CDF80C903022039B78
:102B30004B451ED3039B0E9A5B1B2846136004B0C3
:102B4000BDE8F087B8F1460F00EB0409E5D1037842
:102B5000302B0AD10022002330463946FDF794FF7E
:102B600018B9C4F10104CAF80040DAF800309944F9
:102B7000D3E7591C03911A70D9E7F7B50029BABFFA
:102B800049422D232B2309290270437029DD0DF1C1
:102B900007031D460A271A46B1FBF7F607FB161472
:102BA000303402F8014C0C46632C03F1FF333146FC
:102BB000F1DC3031941E03F8011C411C2346AB426A
:102BC0000AD30DF109039B1AAC4288BF00230233DC
:102BD0000344181A03B0F0BD13F8016B01F8016F3C
:102BE000EDE7302330318370C170031DF1E7000041
:102BF0002DE9F04F8DB00C46DDF8588016461F4683
:102C0000054600F0BDFD036804931846FDF710FB70
:102C100000230A93D8F800300590073323F0070308
:102C200003F1080294F818A0D4F800B0C8F8002006
:102C3000D3E9008929F000430793CDF81880C4E94F
:102C40001289DDE906019C4B4FF0FF32FDF74EFF84
:102C500070BBDDE90601984B4FF0FF32FDF728FF0E
:102C600030BB0022002340464946FDF717FF10B154
:102C70002D2384F84330914A914BBAF1470F8CBF12
:102C800090469846032323612BF0040323604FF002
:102C90000009009733460BAA2146284600F0D2F9D6
:102CA000013040F08D804FF0FF300DB0BDE8F08F67
:102CB00042464B4640464946FDF718FF40B14B4659
:102CC000002BBCBF2D2384F843307E4A7E4BD4E7D3
:102CD00063680AF0DF0206925A1C3BD10623636048
:102CE0004BF480620023226003930AABCDE901A379
:102CF00009AB0093616849EC108B0DF12303284662
:102D0000FFF7D6FE069B0999472B804629D1C81CA0
:102D100002DB6368994241DDAAF1020A5FFA8AFA8E
:102D20000139524604F150000991FFF726FF0A9A33
:102D30001318012A8146236102DC2268D20701D5DB
:102D4000013323619DF82330002BA2D02D2384F87A
:102D500043309EE7069A472AC2D1002BC0D10123F7
:102D6000BDE7BAF1650FDBD9BAF1660F18D10029BA
:102D700063680BDD216113B92268D00702D50133E6
:102D80000B442361A1654FF00009DBE713B922680A
:102D9000D20701D50233F4E70123F2E74FF0670AC7
:102DA0000A9B994205DB23682161D807EAD54B1CB1
:102DB000E7E70029D4BFC1F1020201221344E0E792
:102DC00023685A0507D42369424631462846B84746
:102DD00001302BD167E7BAF1650F40F2DD80D4E90D
:102DE000120100220023FDF74FFE002833D0374A9E
:102DF000012331462846B84701303FF454AFDDE99E
:102E00000938434502DB2368D8070FD5DDE90423E1
:102E100031462846B84701303FF445AF4FF000092E
:102E200008F1FF3804F11A0AC84509DC23689B073A
:102E300000F10381E0680B9B9842B8BF184634E765
:102E40000123524631462846B84701303FF42BAFA4
:102E500009F10109E8E7099B002B39DC1B4A012332
:102E600031462846B84701303FF41DAFDDE9093946
:102E700059EA030302D12368D907D7D5DDE9042332
:102E800031462846B84701303FF40DAF4FF0000AF5
:102E900004F11A0B099B5B42534501DC4B4693E757
:102EA00001235A4631462846B84701303FF4FBAE6D
:102EB0000AF1010AEEE700BFFFFFEF7F745600083A
:102EC000705600087C5600087856000880560008A6
:102ED000A36DDDF828A05345A8BF5346002B9946A3
:102EE00036DC4FF0000B29EAE97904F11A02A36DF0
:102EF0000693A3EB09035B4531DC099B9A453ADC59
:102F00002368DA0737D4099BAAEB0309069BAAEBCF
:102F100003039945A8BF9946B9F1000F33DC4FF080
:102F2000000829EAE97904F11A0B099BAAEB0303CB
:102F3000A3EB090343457FF779AF01235A46314696
:102F40002846B84701303FF4AEAE08F10108ECE77F
:102F5000424631462846B8470130C2D1A3E6012394
:102F6000314628460692B84701303FF49CAE069A97
:102F70000BF1010BBBE7DDE9042331462846B847D6
:102F80000130C0D18FE6069A4B464244314628466E
:102F9000B8470130C3D186E6DDF828A0BAF1010FA9
:102FA00001DCDB0736D50123424631462846B847C7
:102FB00001303FF478AEDDE9042331462846B847B6
:102FC00001303FF470AED4E91201002200230AF16F
:102FD000FF3AFDF759FDC0B9534608F101023146E9
:102FE0002846B84701300CD15DE601235A463146E8
:102FF0002846B84701303FF456AE08F10108D045E5
:10300000F3DB4B4604F15002DFE64FF0000804F119
:103010001A0BF4E701234246E1E701234A46314611
:103020002846B84701303FF43EAE08F10108E36896
:103030000B995B1A4345F0DCFCE64FF0000804F105
:103040001909F4E72DE9F047164698468A680B6996
:10305000DDF820909342B8BF1346336091F84320C7
:1030600007460C460AB1013333602368990642BF14
:10307000336802333360256815F0060506D104F184
:10308000190AE36832689B1AAB4226DC94F8433095
:103090002268003B18BF012392062BD404F143029F
:1030A00041463846C84701301ED02368226903F0E4
:1030B0000603042B02BFE5683368ED1AA3680CBF52
:1030C00025EAE57500259342C4BF9B1AED1800263A
:1030D0001A34B5421AD1002008E001235246414675
:1030E0003846C847013003D14FF0FF30BDE8F087C4
:1030F0000135C6E7E1185A1C302081F8430022440C
:1031000094F8451082F843100233C7E701232246A2
:1031100041463846C8470130E6D00136D9E70000BD
:103120002DE9FF470F7E0C9E782F914680460C4676
:103130009A4601F1430207D8622F0AD8002F00F007
:10314000D180582F00F0B88004F1420684F8427014
:103150003AE0A7F16303152BF6D801A151F823F04B
:10316000B9310008CD310008493100084931000863
:103170004931000849310008CD31000849310008C3
:10318000493100084931000849310008CB320008B4
:10319000F73100088532000849310008493100083C
:1031A000ED32000849310008F731000849310008C4
:1031B000493100088D32000833681A1D1B683260DF
:1031C00004F1420684F8423001239CE03368206811
:1031D000191D3160060601D51D6803E04506FBD5C3
:1031E000B3F90050002D03DA2D236D4284F84330EB
:1031F00058480A2311E021683368080653F8045B35
:1032000002D4490648BFADB26F2F5248336014BF95
:103210000A230823002184F843106668A660002E64
:1032200005DB21682E4321F0040121604BD01646B6
:10323000B5FBF3F103FB1157C75D06F8017D2F467F
:10324000BB420D46F4D9082B0BD12368DF0708D504
:10325000236961689942DEBF302306F8013C06F11C
:10326000FF36921B2261CDF800A04B4603AA2146EF
:103270004046FFF7E7FE01304AD14FF0FF3004B07F
:10328000BDE8F087236843F02003236032487827A5
:1032900084F84570236831681F0651F8045B02D436
:1032A0005F0648BFADB23160D90744BF43F0200389
:1032B00023601DB11023ADE72648E9E7236823F01A
:1032C00020032360F6E71646BDE733682568616989
:1032D000181D30602E061B6801D5196002E06806D3
:1032E000FBD51980002323611646BCE733681A1DFD
:1032F00032601E68626800213046FCF749FF08B161
:10330000801B606063682361002384F84330AAE770
:103310002369324649464046D0470130ADD0236844
:103320009B0713D4E068039B9842B8BF1846A6E7F2
:103330000123324649464046D04701309DD00135F1
:10334000E36803995B1AAB42F2DCEBE7002504F17A
:103350001906F5E78256000893560008002310B5B9
:103360000446C0E90033C0E90433836081814366C9
:10337000C2818361194608225C3000F0F9F90D4BD7
:1033800063620D4BA3620D4BE3620D4B23630D4B48
:1033900024629C4206D003F16802944202D0D033EA
:1033A0009C4205D104F15800BDE8104000F048BA35
:1033B00010BD00BFC1350008E33500081B3600080A
:1033C0003F36000830050020024A0349034800F058
:1033D00069B800BF70000020E14F000880000020A5
:1033E00041680C4B994210B5044601D001F0F8FD3C
:1033F000A168094B994202D0204601F0F1FDE16835
:10340000064B994204D02046BDE8104001F0E8BDCB
:1034100010BD00BF300500209805002000060020E8
:1034200010B50B4B0B4C0C4A1A60204600220421AD
:10343000FFF794FF04F1680001220921FFF78EFFD6
:1034400004F1D0000222BDE810401221FFF786BF30
:103450006806002030050020C9330008014800F04C
:10346000F0B900BF71060020014800F0EBB900BFC1
:103470007106002010B50446FFF7F0FF236A1BB168
:10348000BDE81040FFF7F0BF044B2362044B1B68FC
:10349000002BF5D1FFF7C4FFF2E700BFE1330008CE
:1034A000680600202DE9F8430746884614460026A2
:1034B000D4E90195B9F1010905D52468002CF7D1AB
:1034C0003046BDE8F883AB89012B07D9B5F90E303A
:1034D000013303D029463846C04706436835E9E73B
:1034E0000FB407B5064904AB086853F8042B81688C
:1034F000019301F0D9FB03B05DF804EB04B0704711
:103500007C000020036A70B5846805460E460BB93E
:10351000FFF7B0FF636EDB0705D4A389980502D4DB
:10352000A06D00F08EF9A389190702D52369002B3D
:1035300035D12146284600F0C5F880B34FF0FF355D
:10354000636EDA0705D4A3899B0502D4A06D00F051
:1035500079F9284670BD002B04DAA2699A4217DC7B
:103560000A2915D023685A1C22601970A36816F81E
:10357000011F013BA3600029EDD1002B11DA224687
:103580000A21284600F05FF80130D7D00A25D7E796
:103590002246284600F057F80130E7D1CEE7013E39
:1035A000E4E723685A1C22600A221A70EEE7000042
:1035B000024B01461868FFF7A5BF00BF7C00002042
:1035C00010B50C46B1F90E1000F000F90028ABBFA1
:1035D000636DA3891B1823F48053ACBF6365A3817B
:1035E00010BD2DE9F0411F468B89DB0505460C46D1
:1035F000164605D5B1F90E100223002200F0D4F8CA
:10360000A389B4F90E1023F48053A38132463B46BC
:103610002846BDE8F04100F0FBB810B50C46B1F902
:103620000E1000F0C1F8431CA38915BF606523F498
:10363000805343F48053A38118BFA38110BDB1F917
:103640000E1000F0A1B8F8B50E461446054618B1A4
:10365000036A0BB9FFF70EFFA369A360A3891A07DA
:1036600001D5236943B92146284600F02BF818B14B
:103670004FF0FF373846F8BD23682269981A63690E
:10368000F6B28342374605DC2146284601F0A8FC05
:103690000028EDD1A368013BA36023685A1C226077
:1036A0001E706269431C9A4204D0A389DB07E1D5EE
:1036B0000A2EDFD12146284601F092FC0028D9D0FD
:1036C000D6E7000038B5294B054618680C4618B1F6
:1036D000036A0BB9FFF7CEFEB4F90C30190722D4F8
:1036E000DA0607D409222A6043F04003A3814FF091
:1036F000FF3033E0580712D5616B41B104F1440348
:10370000994202D0284600F0E1FE00236363A389BA
:1037100023F02403A3810023636023692360A3892A
:1037200043F00803A38123694BB9A38903F42073F1
:10373000B3F5007F03D02146284601F09FFCB4F981
:103740000C3013F001020AD00022A26062695242DA
:10375000A261226942B913F08000C5D138BD990732
:1037600058BF6269A260F4E70020F7E77C00002000
:1037700002440346934200D1704703F8011BF9E766
:1037800000487047BC01002038B5064D00230446B0
:1037900008462B60FDF75AFC431C02D12B6803B18D
:1037A000236038BD6C06002038B5074D0446084636
:1037B000114600222A601A46FDF752FC431C02D132
:1037C0002B6803B1236038BD6C06002038B5074D67
:1037D00004460846114600222A601A46FDF718FCE6
:1037E000431C02D12B6803B1236038BD6C06002056
:1037F00038B5064D0023044608462B60FDF732FC21
:10380000431C02D12B6803B1236038BD6C06002035
:1038100038B5074D04460846114600222A601A466C
:10382000FDF706FC431C02D12B6803B1236038BDB1
:103830006C060020014B1868704700BF7C00002018
:103840007047704770472DE9F74F03690C69A34231
:1038500007467EDB013C01F11408A30000F11405CA
:10386000009305EB8403019358F8243055F8242085
:1038700001339A4208EB8409B2FBF3F62ED34FF0E2
:10388000000AC446AE46D3465CF8043B98B206FB39
:1038900000A0020C1B0C06FB0323DEF8002080B204
:1038A00092B2121A5A44DEF800004FEA134A9BB251
:1038B000C3EB224303EB104392B242EA0342E145D9
:1038C0004EF8042B4FEA234BDED2009BEB582BB96A
:1038D000019B043B9D421A462FD33C61384601F0C0
:1038E000B1F8002825DB2946002058F8042BD1F830
:1038F00000C01FFA82FE1FFA8CF3A3EB0E030344F1
:10390000120CC2EB234202EB1C429BB243EA02437D
:10391000C14541F8043B4FEA2240E6D255F8242045
:1039200005EB840322B9043B9D421A460BD33C614C
:103930000136304603B0BDE8F08F1268043B002A20
:10394000CBD1013CC6E71268043B002AEFD1013C11
:10395000EAE70020EEE700002DE9F04FC76999B0D3
:103960008DED040B55EC104B229E099183460E926F
:1039700013937FB91020FEF7E5FF0246CBF81C0039
:1039800020B9A54BEF21A54801F0E4FBC0E9017780
:103990000760C760DBF81C30196859B15A684A6083
:1039A000012393408B60584600F01AFEDBF81C3070
:1039B00000221A602B1EB9BF23F000430593002399
:1039C0003360059F964BBCBF01223260BB4312D1CE
:1039D000139A42F20F731360C7F31303234300F0EB
:1039E0004385239BDFF84CA2002B00F045850AF1AC
:1039F000030300F03FBD9DED047B002251EC170B4B
:103A000000238DED0C7BFDF73FF8804658B1139AEB
:103A100001231360239B13B1239A824B1360DFF8B9
:103A200018A200F029BD9DED0C0B16AA17A9584647
:103A300001F0B8F8C7F30A568146002E77D00D9BE7
:103A4000CDF85080C3F31303DDE90C0143F07F533D
:103A500043F44013A6F2FF3619460022724BFCF7DE
:103A6000F3FB67A3D3E90023FCF7A6FD66A3D3E924
:103A70000023FCF7EBFB044630460D46FCF732FD15
:103A800063A3D3E90023FCF797FD02460B462046CB
:103A90002946FCF7DBFB04460D46FDF73DF8002206
:103AA0000746002320462946FCF7F8FF40B1384678
:103AB000FCF718FD22462B46FCF7E6FF00B9013F54
:103AC000162F51D8594B03EBC703D3E90023DDE987
:103AD0000C01FCF7E3FF002848D0013F00231293BC
:103AE000169B9B1B5A1E44BFC3F10108002308927A
:103AF00054BF4FF000080893002F39DB089B0F9745
:103B00003B44089300230A93099B092B61D8052B9A
:103B1000C4BF043B0993099BA3F10203CCBF00245B
:103B20000124032B61D8DFE803F05052352ADDE988
:103B300016631E4406F23243202BC1BFC3F140037B
:103B40009F4006F2124324FA03F3D6BFC3F12003C9
:103B500047EA030004FA03F0FCF7B4FC0122A1F1E8
:103B6000F873013E149277E70123B8E71290B7E7A4
:103B70007B420A930023A8EB07080F93C4E70123B5
:103B80000B930E9BFB1800930133012B0393B8BFDB
:103B9000012306E001230B930E9B002B28DD0093ED
:103BA0000393DBF81C000021042202F114059D425E
:103BB00023D94160584600F0D3FC824600283DD10D
:103BC0001B4B024640F2AF11DDE60023E3E7002382
:103BD000D6E70124002309930B944FF0FF330093A1
:103BE0000393002212230E92DBE701230B93F4E7E9
:103BF0000123009303931A46F5E701315200D4E7FD
:103C000061436F63A787D23FB3C8608B288AC63FE2
:103C1000FB799F501344D33FB1560008C8560008A3
:103C20000000F07F815600080000F83F1858000897
:103C300021570008AD56000880560008DBF81C30FC
:103C40001860039B0E2B00F2A180002C00F09E80D8
:103C5000002F33DD9C4B07F00F0203EBC20393ED03
:103C6000007BF8058DED067B4FEA271416D5974BA0
:103C7000DDE90C01D3E90823FCF7C8FDCDE9040117
:103C800004F00F040326914D54B9DDE90623DDE964
:103C90000401FCF7BBFDCDE9040128E00226F2E7B0
:103CA000E10708D5DDE90601D5E90023FCF784FC2E
:103CB000CDE90601013664100835E5E700F0AF8074
:103CC0007C42814B814D04F00F0203EBC203D3E928
:103CD0000023DDE90C01FCF76FFCCDE904012411A0
:103CE00000230226002C40F08F80002BD3D1129BA2
:103CF000DDE90445002B00F09480754B002220463E
:103D00002946FCF7CBFE002800F08B80039B002B9C
:103D100000F08780009B002B34DD7B1E069320463D
:103D20006C4B00222946FCF747FCCDE90401009CBE
:103D300001363046FCF7D6FBDDE90423FCF73CFCFA
:103D4000654B0022FCF782FA0546A1F15076002C63
:103D50006AD1DDE90401614B0022FCF775FA0246E5
:103D60000B46CDE904232A463346FCF7B5FE00286E
:103D700040F08782DDE904012A4606F10043FCF7A2
:103D80008DFE38BBDDE90C34CDE90434179B002BE4
:103D9000C0F258810E2F00F355814B4B03EBC70344
:103DA00093ED007B0E9B002B8DED007B80F2E58078
:103DB000039B002B00F3E1800CD1484B002251EC17
:103DC000170BFCF7F9FBDDE90423FCF77BFE002869
:103DD00000F05582002425460E9BDB430693564691
:103DE00000272146584600F0FBFB002D00F0BD8067
:103DF0002FB1AF4203D03946584600F0F1FB2946B7
:103E0000584600F0EDFBB0E0E20705D5D5E9002308
:103E1000FCF7D2FB013601236410083562E7022665
:103E200065E7039C069784E7274B0B9903EBC403D4
:103E300053E902235444002954D029490020FCF7B7
:103E4000E5FC33462A46FCF7FFF9CDE9100156465A
:103E5000DDE90401FCF760FE0546FCF743FB024682
:103E60000B46DDE90401FCF7EFF9303502460B465D
:103E7000CDE9042306F8015BDDE91023FCF70EFE13
:103E8000002872D1DDE9042311490020FCF7DCF998
:103E9000DDE91023FCF702FE002840F0B480A642C2
:103EA0003FF470AFDDE910010A4B0022FCF784FB00
:103EB000084BCDE910010022DDE90401FCF77CFB91
:103EC000CDE90401C4E700BF18580008F057000806
:103ED0000000F03F0000244000001C40000014409F
:103EE0000000E03F31462846FCF766FBCDE91001B3
:103EF00015945646DDE90401FCF70EFE0546FCF775
:103F0000F1FA02460B46DDE90401FCF79DF9303574
:103F100006F8015B02460B46A642CDE904234FF0AA
:103F2000000224D1AB4BDDE91001FCF78FF902460A
:103F30000B46DDE90401FCF7CFFD002863D1DDE984
:103F40001023A4490020FCF77FF902460B46DDE967
:103F50000401FCF7A3FD00283FF414AF159E731E67
:103F6000159316F8013C302BF8D0069F3BE09A4B96
:103F7000FCF722FBCDE90401BCE7DDE90445564628
:103F8000DDE9002320462946FCF740FCFCF7C4FD90
:103F90008046FCF7A7FADDE90023FCF70DFB02469B
:103FA0000B462046294608F13004FCF74DF906F887
:103FB000014B039DA6EB0A04A54202460B4634D1F1
:103FC000FCF744F9DDE9002304460D46FCF784FDC7
:103FD000C0B9DDE9002320462946FCF755FD10B1A4
:103FE00018F0010F0ED14946584600F0F9FA0023A7
:103FF0003370139B01371F60239B002B00F03C8222
:104000001E6039E2069733461E4613F8012D392A01
:1040100007D19A45F8D1069A0132069230228AF8E1
:1040200000201A7801321A709FE76B4B0022FCF7D0
:10403000C3FA0022002304460D46FCF725FD0028A4
:104040009ED0D0E70B9A002A00F0E180099A012A5D
:1040500000F3C480149A002A00F0B78003F23343BF
:104060000A9C4646089A01211A44584698440892E8
:1040700000F06AFB05465EB1089B002B08DDB342E9
:10408000089AA8BF3346A8EB0308F61AD31A089378
:104090000A9BF3B10B9B002B00F0BD808CB129462D
:1040A0002246584600F008FC4A4601460546584656
:1040B00000F060FB49460690584600F091FA069BD6
:1040C00099460A9B1A1B04D04946584600F0F4FB57
:1040D00081460121584600F037FB0F9B0446002B18
:1040E00000F0CE811A460146584600F0E5FB099BD8
:1040F000012B044600F39580049B002B40F08D803B
:10410000059BC3F31303002B40F08980059B23F02C
:1041100000431B0D1B052BB1089B0133089308F1CD
:10412000010801230A930F9B002B00F0AF81236944
:1041300004EB8303186900F0BBFAC0F12000089B70
:10414000184410F01F0077D0C0F12003042B6BDD62
:10415000089BC0F11C000344804406440893B8F156
:10416000000F05DD49464246584600F0FFFB8146F8
:10417000089B002B05DD21461A46584600F0F6FB49
:104180000446129B002B59D02146484600F05AFCA9
:10419000002853DA7B1E0693494600230A2258461C
:1041A00000F040FA0B9B8146002B00F07181002348
:1041B00029460A22584600F035FA009B002B054696
:1041C00067DC099B022B41DC63E0169BC3F13603DD
:1041D00046E700BF0000E03F00002440039B5C1E58
:1041E0000A9BA34209DB1C1B039B002BBFF639AFC4
:1041F000039BA8EB0306002334E70A9B0F9A0A945B
:10420000E31A1A440F92039B464600242AE70A9CAD
:104210000B9D46462FE70A9A56E7002382E7049B48
:1042200080E700230A9382E799D0089A1C331A4446
:1042300098441E44089292E70346F6E7039B0697CC
:10424000002B20DC0093099B022B1EDD009B002B22
:104250007FF4C2AD21460522584600F0E3F901463D
:104260000446484600F0EEFB00287FF7B5AD564601
:10427000312306F8013B069B01330693B0E5039C0E
:1042800006972546F3E7039B00930B9B002B00F05A
:104290000381002E05DD29463246584600F066FBB4
:1042A00005460A9B002B5AD06968584600F058F919
:1042B000064628B9834B024640F2EF21FFF763BB65
:1042C0002A690232920005F10C010C3000F034FF33
:1042D00001223146584600F049FB0AF101030393DD
:1042E000009B53440B93049B03F001032F460A9356
:1042F0000546039B2146013B48460093FFF7A3FA7E
:104300003946049000F13008484600F09BFB2A46ED
:1043100008902146584600F0B1FBC268064602BB31
:104320000146484600F08EFB0246314658460E9242
:1043300000F056F9099B0E9A039E42EA03010A9B7C
:10434000194310D1B8F1390F29D0089B002B02DD99
:10435000049B03F13108009B83F8008041E5284667
:10436000BBE70122E1E7089B002B04DB09990B4323
:104370000A990B4320D1002AEDDD49460122584617
:1043800000F0F4FA2146814600F05CFB002803DCD3
:10439000E1D118F0010FDED0B8F1390FD8D1009A71
:1043A0003923137033461E46013B16F8012C392A77
:1043B00051D001321A7014E5002A07DDB8F1390F27
:1043C000EDD0009A08F1010313700AE5039B0B9AE4
:1043D00003F8018C934228D0494600230A2258460C
:1043E00000F020F9AF4281464FF000034FF00A027F
:1043F0003946584607D100F015F907460546039B94
:104400000133039375E700F00DF9294607460023B1
:104410000A22584600F006F90546F0E7009B002BFB
:10442000CCBF1E4601265644002749460122584665
:1044300000F09CFA2146814600F004FB0028B1DC24
:1044400002D118F0010FADD133461E4613F8012DED
:10445000302AFAD0C5E49A45A5D1069B01330693CC
:1044600031238AF80030BCE4239BDFF85CA01BB149
:104470000AF10803239A1360504619B0BDE8F08F83
:10448000099B012B7FF738AE0F9B0A93012056E65C
:10449000009B002B7FF7D7AE564621464846FFF7D4
:1044A000D2F900F1300806F8018B009BA6EB0A0256
:1044B0009342B3DD494600230A22584600F0B2F881
:1044C0008146EAE721570008A456000838B505469A
:1044D000002941D051F8043C0C1F002BB8BFE41850
:1044E000FEF7DAFA1D4A136833B963601460284690
:1044F000BDE83840FEF7D6BAA34208D92068211893
:104500008B4201BF19685B6809182160EDE71A4604
:104510005B680BB1A342FAD911685018A0420BD1C5
:1045200020680144501883421160E0D118685B682C
:10453000536008441060DAE702D90C232B60D6E7F9
:10454000206821188B4204BF19685B68636004BF50
:10455000091821605460CAE738BD00BF2C0500204F
:1045600070B5C66904460D4676B91020FEF7EAF923
:104570000246E06120B9184B18486B2100F0EAFDB3
:10458000C0E901660660C660E669F36883B1E36965
:10459000DB6853F82500B8B9012101FA05F6721D50
:1045A0009200204600F0F4FD60B1C0E901560EE033
:1045B00021220421204600F0EBFDE369F060DB6876
:1045C000002BE4D1002070BD026843F825200023B1
:1045D000C0E90333F7E700BFB156000832570008BF
:1045E00070B5C66905460C4676B91020FEF7AAF9E3
:1045F0000246E86120B9094B09488F2100F0AAFD65
:10460000C0E901660660C6603CB1EB696268DB68C0
:1046100053F82210216043F8224070BDB1560008C3
:10462000325700082DE9F0410D6907460C461E4639
:1046300001F1140C0020DCF8003099B202FB01619A
:104640001E0C0B0C02FB063389B2013001EB034157
:1046500085424CF8041B4FEA1346ECDC0EB3A3680A
:10466000AB4219DC616838460131FFF779FF8046BB
:1046700028B902460C4B0D48BA2100F06BFD2269A7
:10468000023204F10C0192000C3000F055FD21467D
:104690003846FFF7A5FF444604EB850301355E610C
:1046A00025612046BDE8F0812157000832570008F7
:1046B000B0F5803F034636BF030400201020B3F15D
:1046C000807F3CBF1B020830B3F1805F3CBF1B0101
:1046D0000430B3F1804F3CBF9B000230002B05DB60
:1046E00013F0804F00F1010008BF202070470368DD
:1046F000024613F007000BD0D90721D4980749BF11
:104700005B089B08012013605CBF136002207047A8
:1047100099B209B91B0C1020D9B209B908301B0A8B
:10472000190704BF1B090430990704BF9B08023016
:10473000D90703D45B0800F1010003D01360704770
:10474000002070472020704710B50C460121FFF76C
:1047500007FF024628B9054B054840F2451100F015
:10476000F9FC01234461036110BD00BF215700081B
:10477000325700082DE9F04F17460A693B699A4203
:10478000A8BF3B468946A4BF0F4699463D69D9F864
:1047900010A0BB68796805EB0A06B34285B0B8BFC4
:1047A0000131FFF7DDFE30B90246414B41484FF47D
:1047B000B17100F0CFFC00F1140404EB860E234627
:1047C0000022734520D307F1140809F1140108EB06
:1047D000850501EB8A030293EB1B153B23F00303D2
:1047E00004331537BD4238BF04230193029B039164
:1047F0008B420CD8002E03DD5EF8043D002B55D013
:10480000066105B0BDE8F08F43F8042BD9E7B1F895
:1048100000A0BAF1000F1FD0C446A14600275CF8E3
:10482000042BD9F800301FFA82FB9BB20AFB0B3332
:104830003B44D9F80070120C3F0C0AFB027202EBE9
:1048400013429BB243EA0243654549F8043B4FEAF1
:104850001247E4D8019BE750039BB3F80290043160
:10486000B9F1000F20D023684746A4464FF0000A54
:10487000B7F800B0BCF8022009FB0B2252449BB2EF
:1048800043EA02434CF8043B57F8043B4FEA134A0F
:10489000BCF8003009FB0A3303EB1243BD424FEA78
:1048A000134AE5D8019AA35004349FE7013EA1E7DB
:1048B00021570008325700082DE9F843154612F039
:1048C000030207460E4607D0254C013A002354F850
:1048D0002220FFF7A7FE0646AD103DD0FC697CB94B
:1048E0001020FEF72FF80246F86128B91D4B1E482C
:1048F00040F2B31100F02EFCC0E901440460C46032
:10490000D7F81C80D8F808404CB940F271213846DD
:10491000FFF71AFF0023C8F80800044603604FF0B1
:104920000009EB070AD5314622463846FFF722FF39
:10493000314680463846FFF753FE46466D100BD091
:10494000206838B9224621463846FFF713FF206019
:10495000C0F800900446E4E73046BDE8F88300BFA5
:10496000E4570008B1560008325700082DE9F04717
:104970000C464968236903EB6218A3680746914611
:104980004FEA621A08F10106B3420BDB3846FFF723
:10499000E7FD054648B90246284B29484FF4EF7118
:1049A00000F0D8FB01315B00EEE7002300F11401B9
:1049B00000F110021846534533DB20692AEAEA7AEF
:1049C00004F1140319F01F0901EB8A0103EB800CB9
:1049D0002BD0C9F1200E8A460022186800FA09F08F
:1049E00010434AF8040B53F8042B9C4522FA0EF2AC
:1049F000F3D8ACEB0403153B23F00303043304F1B9
:104A00001500604588BF0423CA500AB108F10206A8
:104A1000013E38462E612146FFF7E2FD2846BDE8FB
:104A2000F08742F8040F0133C5E7043953F8042B2B
:104A300041F8042F9C45F9D8EAE700BF2157000848
:104A4000325700080A6903460069801A30B50ED152
:104A50001433143103EB820401EB820154F8045D3A
:104A600051F8042D954203D005D24FF0FF3030BDF0
:104A7000A342F3D3FBE70120F9E700002DE9F74F4C
:104A800089460646114648461446FFF7DBFF051ED9
:104A900012D129463046FFF763FD024628B93F4B45
:104AA00040F237213E4800F055FB0123C0E90435B0
:104AB000104603B0BDE8F08FBCBF4B46A146304660
:104AC000D9F80410BABF1C4601250025FFF748FDA0
:104AD000024618B9314B40F24521E3E7D9F810708E
:104AE0002669C56009F1100309F1140504F1140EDB
:104AF00000F1140B05EB87080EEB86060193D946EF
:104B00004FF0000C019B5EF8040B53F804AF0193C7
:104B10001FFA8AF3194683B2CB1A000C6344C0EB28
:104B20001A4000EB23409BB243EA0043764549F824
:104B3000043B4FEA204CE5D8331B153B23F003031D
:104B400015340433A64238BF04231D445B441E467B
:104B50002C4644450ED308F10301491B21F0030103
:104B6000033DA84538BF00210B4453F8041D91B103
:104B700017619DE754F8041BE646080C1CFA81FCFB
:104B8000714400EB2C4089B241EA004146F8041B15
:104B90004FEA204CDDE7013FE7E700BF215700085F
:104BA000325700082DE9F7430F46012159EC108BCD
:104BB0001646FFF7D5FC044630B90246234B24487D
:104BC00040F20F3100F0C6FAC9F30A55C9F31303D6
:104BD0000DB143F480130193B8F1000323D068466C
:104BE0000093FFF784FDDDE90012D0B1C0F120038E
:104BF00002FA03F30B43C24063610192019BA3617C
:104C0000002B0CBF012202222261A5B1A5F233457F
:104C100005443D60C0F135003060204603B0BDE87A
:104C2000F0836161EAE701A8FFF761FD019B636121
:104C300020300122E8E704EB8203A0F23240386022
:104C40001869FFF735FDC0EB4210E5E72157000872
:104C5000325700089368013B002B10B4936008DAC8
:104C60009469A34201DB0A2903D15DF8044BFEF7E6
:104C7000EABC1368581C1060197008465DF8044BB4
:104C80007047F8B506460F461446D518AC4201D118
:104C9000002007E014F8011B3A463046FFF7DAFF20
:104CA000431CF3D1F8BD00002DE9F04F0D469DB037
:104CB00014469846064618B1036A0BB9FEF7DAFBAC
:104CC0006B6ED90705D4AB899A0502D4A86DFEF79F
:104CD000B8FDAB891B0701D52B699BB92946304626
:104CE000FEF7F0FC70B16B6EDC0704D54FF0FF30BF
:104CF0001DB0BDE8F08FAB899805F7D4A86DFEF71D
:104D0000A1FDF3E70023099320238DF82930CDF886
:104D10000C803023DFF8AC818DF82A304FF0010988
:104D200023469A4613F8012B0AB1252AF9D1BAEB8A
:104D3000040B0BD05B46224629463046FFF7A1FF05
:104D4000013000F0A780099A5A4409929AF800307D
:104D5000002B00F09F8000234FF0FF32CDE90523A8
:104D60000AF1010A049307938DF853301A935446BD
:104D7000052214F8011B5348FBF70AFA049AD8B924
:104D8000D10644BF20238DF85330130744BF2B2393
:104D90008DF853309AF800302A2B15D0079A5446D4
:104DA00000204FF00A0C214611F8013B303B092B43
:104DB0004BD9B0B1079214E0A0EB080309FA03F352
:104DC00013430493A246D2E7039B191D1B6803916A
:104DD000002BBBBF5B4242F0020207930793B8BFB0
:104DE000049223782E2B0AD163782A2B32D1039B8D
:104DF0001A1D1B68039243EAE37302340593DFF83C
:104E0000D4A0217803225046FBF7C2F938B1049BA5
:104E1000A0EB0A004022824013430134049314F8AB
:104E2000011B29488DF828100622FBF7B1F900284C
:104E30003FD0264B1BBB039B073323F007030833EC
:104E40000393099B3B4409936AE70CFB02320C462F
:104E50000120A8E700230134059319464FF00A0CFE
:104E6000204610F8012B303A092A03D9002BC6D06E
:104E70000591C4E70CFB012104460123F0E703ABD5
:104E800000932A46124B04A93046FDF7B1FE0746AF
:104E9000781CD6D16B6ED90705D4AB899A0502D49C
:104EA000A86DFEF7CFFCAB895B063FF51FAF0998F5
:104EB0001EE703AB00932A46054B04A93046FEF7D4
:104EC0002FF9E4E78C57000896570008F12B0008EB
:104ED000834C000892570008B1F90C202DE9F041ED
:104EE000160705460C4654D44B68002B02DC0B6CAD
:104EF000002B48DDE66A002E45D0002312F48052D4
:104F00002F68216A2B6030D0626DA389590705D5BF
:104F10006368D21A636B0BB1236CD21A0023E66A62
:104F2000216A2846B047431CA38906D129681D2958
:104F30002BD82A4ACA40D60727D500226260D90456
:104F40002269226004D5421C01D12B6803B9606537
:104F5000616B2F60B9B104F14403994202D0284635
:104F6000FFF7B4FA002363630DE001232846B0473E
:104F70000246501CC9D12B68002BC6D01D2B01D076
:104F8000162B1ED12F60002022E043F040031BB2FD
:104F90001BE00F69002FF6D093070E6808BF4B691E
:104FA0000F6018BF0023A6EB07088B60B8F1000F55
:104FB000E9DD216AA66A43463A462846B0470028FA
:104FC00008DCB4F90C3043F04003A3814FF0FF300C
:104FD000BDE8F0810744A8EB0008E7E701004020A6
:104FE00038B50B6905460C4613B90025284638BD6F
:104FF00018B1036A0BB9FEF73DFAB4F90C30002B77
:10500000F3D0626ED00704D4990502D4A06DFEF7E8
:1050100018FC28462146FFF75FFF636EDA07054656
:10502000E4D4A3899B05E1D4A06DFEF70BFCDDE77A
:1050300070B50C46B1F90E10002996B015461E4603
:105040000DDAA38913F0800F4FF0000114BF402345
:105050004FF48063002031602B6016B070BD6A464B
:1050600000F048F80028ECDB019901F47041A1F54B
:105070000053594259414FF48063EBE78B89F7B5F0
:105080009D0706460C4607D504F1470323602361BC
:105090000123636103B0F0BD01AB6A46FFF7C8FFAF
:1050A000009F054639463046FDF776FC48B9B4F90D
:1050B0000C309A05EED423F0030343F00203A381DE
:1050C000E2E7A389206043F08003A381019BC4E948
:1050D00004075BB1B4F90E10304600F01DF828B19A
:1050E000A38923F0030343F00103A381A3891D4394
:1050F000A581CFE738B5074D002304460846114681
:105100002B60FBF7A6FF431C02D12B6803B1236081
:1051100038BD00BF6C06002038B5064D002304469C
:1051200008462B60FBF79AFF431C02D12B6803B1A2
:10513000236038BD6C0600200A44914200F1FF3321
:1051400000D1704710B511F8014B03F8014F91429F
:10515000F9D110BD1FB514461A46094B1B68054608
:10516000D8684CB1074B0091CDE9013406492B4674
:1051700000F042F800F052F8044B1C46F3E700BF81
:105180007C000020A7570008B4570008E257000829
:1051900070B5A1FB025434B92946FDF7FDFB064664
:1051A00028B9304670BD0C2202600026F9E72A4675
:1051B0002146FEF7DDFAF4E782B001B901A942B158
:1051C0004BB113780B601278101E18BF012002B08B
:1051D00070471046FBE76FF00100F8E7034608460A
:1051E00041B1FF2A04D98A221A604FF0FF3070477C
:1051F0000A700120704700000EB403B5014603ABEE
:10520000054853F8042B00680193FFF74DFD02B0E9
:105210005DF804EB03B070477C00002008B5062061
:1052200000F02CF80120FBF7EDFE1F2938B50546EC
:105230000C4604D9162303604FF0FF3038BDC26B13
:1052400012B152F821304BB9284600F031F822460D
:1052500001462846BDE8384000F018B8012B0AD0B6
:10526000591C03D1162303600120E7E7002142F80F
:105270002410204698470020E0E70000024B01463A
:105280001868FFF7D2BF00BF7C00002038B5074D7B
:1052900000230446084611462B60FBF7ABFE431C77
:1052A00002D12B6803B1236038BD00BF6C0600201B
:1052B000FBF79EBEF8B500BFF8BC08BC9E46704721
:0C52C000F8B500BFF8BC08BC9E46704763
:1052D000380000200000002068656C6C6F20776F3C
:1052E000726C640D0000000074686973206973209B
:1052F00025643A0D0A000000526967687420456E03
:10530000636F646572202D20436F756E743A20259B
:10531000642C20746F74616C5F636F756E743A25D2
:10532000642C20746F74616C5F64697374616E6364
:10533000653A20252E3266206D0D0A004C65667494
:1053400020456E636F646572202D20436F756E7407
:105350003A2025642C20746F74616C5F636F756EE6
:10536000743A25642C20746F74616C5F6469737483
:10537000616E63653A20252E3266206D0D0A0000AD
:105380000D0A3D3D3D3D3D3D3D2048617264204656
:1053900061756C74204F63637572726564203D3D66
:1053A0003D3D3D3D3D0D0000523020203D203078F8
:1053B000253038580D0A0000523120203D20307829
:1053C000253038580D0A0000523220203D20307818
:1053D000253038580D0A0000523320203D20307807
:1053E000253038580D0A0000523132203D203078E7
:1053F000253038580D0A00004C5220203D203078CE
:10540000253038580D0A0000504320203D203078C8
:10541000253038580D0A0000505352203D20307876
:10542000253038580D0A000043465352203D2030A5
:1054300078253038580D0A0048465352203D203018
:1054400078253038580D0A0044465352203D20300C
:1054500078253038580D0A0041465352203D2030FF
:1054600078253038580D0A004661756C7420416407
:105470006472657373203D203078253038580D0AEA
:10548000000000000D0A2D2D2D204661756C742042
:10549000416E616C79736973202D2D2D0D00000014
:1054A000496E737472756374696F6E204D697361B0
:1054B0006C69676E6564204163636573730D0000FA
:1054C00044617461204D6973616C69676E65642025
:1054D0004163636573730D00496E76616C69642086
:1054E000496E737472756374696F6E204578656375
:1054F0007574696F6E0D0000496E76616C69642089
:1055000053746174652055736167650D0000000078
:105510004D656D6F7279204D616E6167656D656E69
:1055200074204661756C740D000000004275732094
:105530004661756C74206F6E20496E73747275636A
:1055400074696F6E2046657463680D004275732040
:105550004661756C74206F6E205072656369736567
:105560002044617461204163636573730D00000022
:10557000427573204661756C74206F6E20496D70A2
:10558000726563697365204461746120416363657A
:1055900073730D00556E646566696E656420496EAF
:1055A000737472756374696F6E2055736167650DEE
:1055B00000000000496E76616C69642045505352CA
:1055C0002055736167650D00496E76616C696420D2
:1055D0005043204C6F61642055736167650D000076
:1055E0004E6F20436F70726F636573736F722055D7
:1055F000736167650D000000466F72636564204843
:10560000617264204661756C740D000056656374A8
:105610006F72205461626C6520526561642046613E
:10562000756C740D000000003D3D3D3D3D3D3D3D30
:105630003D3D3D3D3D3D3D3D3D3D3D3D3D3D3D3D9A
:105640003D3D3D3D3D3D3D0D00000000444D4120B0
:105650007472616E736572206572726F0000000073
:105660000000000001020304010203040607080908
:10567000494E4600696E66004E414E006E616E00F6
:1056800030003031323334353637383941424344D3
:10569000454600303132333435363738396162634C
:1056A00064656600496E66696E697479004E614E84
:1056B000005245454E54206D616C6C6F63207375CC
:1056C00063636565646564002F646174612F6A6556
:1056D0006E6B696E732F776F726B73706163652F7A
:1056E000474E552D746F6F6C636861696E2F6172E0
:1056F0006D2D31332F7372632F6E65776C69622D58
:1057000063796777696E2F6E65776C69622F6C6954
:1057100062632F7374646C69622F64746F612E63AB
:105720000042616C6C6F63207375636365656465CB
:1057300064002F646174612F6A656E6B696E732FEC
:10574000776F726B73706163652F474E552D746F61
:105750006F6C636861696E2F61726D2D31332F73C9
:1057600072632F6E65776C69622D63796777696EF6
:105770002F6E65776C69622F6C6962632F73746436
:105780006C69622F6D707265632E6300232D302B60
:105790002000686C4C006566674546470043005032
:1057A0004F534958002E002C2066756E6374696F44
:1057B0006E3A2000617373657274696F6E202225E2
:1057C0007322206661696C65643A2066696C6520A5
:1057D000222573222C206C696E6520256425732593
:1057E000730A000005000000190000007D000000A1
:1057F0000080E03779C34143176E05B5B5B89346CD
:10580000F5F93FE9034F384D321D30F94877825A98
:105810003CBF737FDD4F1575000000000000F03FB6
:10582000000000000000244000000000000059407B
:105830000000000000408F40000000000088C340CE
:1058400000000000006AF8400000000080842E4143
:1058500000000000D01263410000000084D797418F
:105860000000000065CDCD41000000205FA0024295
:10587000000000E876483742000000A2941A6D420A
:10588000000040E59C30A2420000901EC4BCD642FD
:1058900000003426F56B0C430080E03779C34143A8
:1058A00000A0D8855734764300C84E676DC1AB431E
:1058B000003D9160E458E143408CB5781DAF15443C
:1058C00050EFE2D6E41A4B4492D54D06CFF0804417
:1058D000F64AE1C7022DB544B49DD9794378EA442C
:1058E00000202020202020202020282828282820B0
:1058F00020202020202020202020202020202020A8
:10590000208810101010101010101010101010100F
:1059100010040404040404040404041010101010FF
:1059200010104141414141410101010101010101C9
:10593000010101010101010101010101101010101B
:10594000101042424242424202020202020202029B
:1059500002020202020202020202020210101010EF
:105960002000000000000000000000000000000017
:105970000000000000000000000000000000000027
:105980000000000000000000000000000000000017
:105990000000000000000000000000000000000007
:1059A00000000000000000000000000000000000F7
:1059B00000000000000000000000000000000000E7
:1059C00000000000000000000000000000000000D7
:1059D00000000000000000000000000000000000C7
:0459E00000000000C3
:0859E400ACA7FF7F01000000E9
:0459EC00D10B0008D3
:0459F000A90B0008F7
:1059F40000000000000000000000000000000000A3
:105A04000000000000000000000000000000000092
:105A140000000000B81E853D0000803F000000002B
:105A240000010000000C0040000000000000000025
:105A34000000000000000000000000000000000062
:105A4400000000000000000000000000B81E853DBA
:105A54000000803F00000000000000000000004043
:105A6400000000000300000030050020800000203A
:105A740000000000300500209805002000060020EA
:105A84000000000000000000000000000000000012
:105A94000000000000000000000000000000000002
:105AA40000000000000000000000000000000000F2
:105AB400000000000000000000000000430000009F
:105AC40000000000000000000000000000000000D2
